{
  "contractName": "Dweibo",
  "abi": [
    {
      "anonymous": false,
      "inputs": [
        {
          "indexed": false,
          "name": "owner",
          "type": "address"
        },
        {
          "indexed": false,
          "name": "username",
          "type": "string"
        }
      ],
      "name": "cerateaccount",
      "type": "event"
    },
    {
      "anonymous": false,
      "inputs": [
        {
          "indexed": false,
          "name": "index",
          "type": "uint256"
        },
        {
          "indexed": false,
          "name": "content",
          "type": "string"
        },
        {
          "indexed": false,
          "name": "time",
          "type": "string"
        },
        {
          "indexed": false,
          "name": "niceNum",
          "type": "uint256"
        }
      ],
      "name": "adddongtai",
      "type": "event"
    },
    {
      "anonymous": false,
      "inputs": [
        {
          "indexed": false,
          "name": "friend",
          "type": "address"
        },
        {
          "indexed": false,
          "name": "index",
          "type": "uint256"
        }
      ],
      "name": "addfriend",
      "type": "event"
    },
    {
      "anonymous": false,
      "inputs": [
        {
          "indexed": false,
          "name": "friend",
          "type": "address"
        },
        {
          "indexed": false,
          "name": "index",
          "type": "uint256"
        }
      ],
      "name": "deletefriend",
      "type": "event"
    },
    {
      "anonymous": false,
      "inputs": [
        {
          "indexed": false,
          "name": "index",
          "type": "uint256"
        }
      ],
      "name": "deletedongtai",
      "type": "event"
    },
    {
      "anonymous": false,
      "inputs": [
        {
          "indexed": false,
          "name": "owner",
          "type": "address"
        },
        {
          "indexed": false,
          "name": "index",
          "type": "uint256"
        },
        {
          "indexed": false,
          "name": "niceNum",
          "type": "uint256"
        }
      ],
      "name": "setnice",
      "type": "event"
    },
    {
      "constant": false,
      "inputs": [
        {
          "name": "name",
          "type": "string"
        },
        {
          "name": "password",
          "type": "string"
        }
      ],
      "name": "createAccount",
      "outputs": [],
      "payable": false,
      "stateMutability": "nonpayable",
      "type": "function"
    },
    {
      "constant": true,
      "inputs": [],
      "name": "getPassword",
      "outputs": [
        {
          "name": "",
          "type": "string"
        }
      ],
      "payable": false,
      "stateMutability": "view",
      "type": "function"
    },
    {
      "constant": false,
      "inputs": [
        {
          "name": "name",
          "type": "string"
        }
      ],
      "name": "setUsername",
      "outputs": [],
      "payable": false,
      "stateMutability": "nonpayable",
      "type": "function"
    },
    {
      "constant": true,
      "inputs": [],
      "name": "getAccountNum",
      "outputs": [
        {
          "name": "",
          "type": "uint256"
        }
      ],
      "payable": false,
      "stateMutability": "view",
      "type": "function"
    },
    {
      "constant": true,
      "inputs": [],
      "name": "getAccountID",
      "outputs": [
        {
          "name": "",
          "type": "uint256"
        }
      ],
      "payable": false,
      "stateMutability": "view",
      "type": "function"
    },
    {
      "constant": true,
      "inputs": [],
      "name": "getUsername",
      "outputs": [
        {
          "name": "",
          "type": "string"
        }
      ],
      "payable": false,
      "stateMutability": "view",
      "type": "function"
    },
    {
      "constant": true,
      "inputs": [],
      "name": "getDongtaiNum",
      "outputs": [
        {
          "name": "",
          "type": "uint256"
        }
      ],
      "payable": false,
      "stateMutability": "view",
      "type": "function"
    },
    {
      "constant": true,
      "inputs": [],
      "name": "getAllDongtaiNum",
      "outputs": [
        {
          "name": "",
          "type": "uint256"
        }
      ],
      "payable": false,
      "stateMutability": "view",
      "type": "function"
    },
    {
      "constant": true,
      "inputs": [
        {
          "name": "owner",
          "type": "address"
        }
      ],
      "name": "getDongtaiNumByAddress",
      "outputs": [
        {
          "name": "",
          "type": "uint256"
        }
      ],
      "payable": false,
      "stateMutability": "view",
      "type": "function"
    },
    {
      "constant": true,
      "inputs": [],
      "name": "getFriendNum",
      "outputs": [
        {
          "name": "",
          "type": "uint256"
        }
      ],
      "payable": false,
      "stateMutability": "view",
      "type": "function"
    },
    {
      "constant": true,
      "inputs": [],
      "name": "getAllFriendNum",
      "outputs": [
        {
          "name": "",
          "type": "uint256"
        }
      ],
      "payable": false,
      "stateMutability": "view",
      "type": "function"
    },
    {
      "constant": true,
      "inputs": [
        {
          "name": "owner",
          "type": "address"
        },
        {
          "name": "index",
          "type": "uint256"
        }
      ],
      "name": "getDongtai",
      "outputs": [
        {
          "name": "",
          "type": "address"
        },
        {
          "name": "",
          "type": "string"
        },
        {
          "name": "",
          "type": "string"
        },
        {
          "name": "",
          "type": "string"
        },
        {
          "name": "",
          "type": "uint256"
        }
      ],
      "payable": false,
      "stateMutability": "view",
      "type": "function"
    },
    {
      "constant": true,
      "inputs": [
        {
          "name": "index",
          "type": "uint256"
        }
      ],
      "name": "getFriendAddress",
      "outputs": [
        {
          "name": "",
          "type": "address"
        }
      ],
      "payable": false,
      "stateMutability": "view",
      "type": "function"
    },
    {
      "constant": false,
      "inputs": [
        {
          "name": "content",
          "type": "string"
        },
        {
          "name": "time",
          "type": "string"
        }
      ],
      "name": "addDongtai",
      "outputs": [],
      "payable": false,
      "stateMutability": "nonpayable",
      "type": "function"
    },
    {
      "constant": false,
      "inputs": [
        {
          "name": "friend",
          "type": "address"
        }
      ],
      "name": "addFriend",
      "outputs": [],
      "payable": false,
      "stateMutability": "nonpayable",
      "type": "function"
    },
    {
      "constant": false,
      "inputs": [
        {
          "name": "index",
          "type": "uint256"
        }
      ],
      "name": "deleteDongtai",
      "outputs": [],
      "payable": false,
      "stateMutability": "nonpayable",
      "type": "function"
    },
    {
      "constant": false,
      "inputs": [
        {
          "name": "index",
          "type": "uint256"
        }
      ],
      "name": "deleteFriend",
      "outputs": [],
      "payable": false,
      "stateMutability": "nonpayable",
      "type": "function"
    },
    {
      "constant": true,
      "inputs": [],
      "name": "getFollowedNum",
      "outputs": [
        {
          "name": "",
          "type": "uint256"
        }
      ],
      "payable": false,
      "stateMutability": "view",
      "type": "function"
    },
    {
      "constant": false,
      "inputs": [
        {
          "name": "owner",
          "type": "address"
        },
        {
          "name": "index",
          "type": "uint256"
        }
      ],
      "name": "setNice",
      "outputs": [],
      "payable": false,
      "stateMutability": "nonpayable",
      "type": "function"
    }
  ],
  "bytecode": "0x6080604052600160005534801561001557600080fd5b50612cc9806100256000396000f300608060405260043610610107576000357c0100000000000000000000000000000000000000000000000000000000900463ffffffff168063047297111461010c57806319289287146101595780631ba001f314610208578063596da31f146102335780635fcc6ce11461028a578063681f3e6d146102b55780636afe7344146103455780636cfb8f35146103705780637c434a831461039b5780638899099f1461044a5780638e20159314610475578063a6de9641146104a0578063c2680d1414610678578063cc8e2394146106a5578063d7a1cfe114610735578063e7cce78414610778578063ed59313a146107a5578063fab88a681461080e578063fcd9cb251461087b575b600080fd5b34801561011857600080fd5b50610157600480360381019080803573ffffffffffffffffffffffffffffffffffffffff169060200190929190803590602001909291905050506108a6565b005b34801561016557600080fd5b50610206600480360381019080803590602001908201803590602001908080601f0160208091040260200160405190810160405280939291908181526020018383808284378201915050505050509192919290803590602001908201803590602001908080601f0160208091040260200160405190810160405280939291908181526020018383808284378201915050505050509192919290505050610aa4565b005b34801561021457600080fd5b5061021d610cc1565b6040518082815260200191505060405180910390f35b34801561023f57600080fd5b50610274600480360381019080803573ffffffffffffffffffffffffffffffffffffffff169060200190929190505050610dc3565b6040518082815260200191505060405180910390f35b34801561029657600080fd5b5061029f610ec7565b6040518082815260200191505060405180910390f35b3480156102c157600080fd5b506102ca610f72565b6040518080602001828103825283818151815260200191508051906020019080838360005b8381101561030a5780820151818401526020810190506102ef565b50505050905090810190601f1680156103375780820380516001836020036101000a031916815260200191505b509250505060405180910390f35b34801561035157600080fd5b5061035a6110a0565b6040518082815260200191505060405180910390f35b34801561037c57600080fd5b50610385611151565b6040518082815260200191505060405180910390f35b3480156103a757600080fd5b50610448600480360381019080803590602001908201803590602001908080601f0160208091040260200160405190810160405280939291908181526020018383808284378201915050505050509192919290803590602001908201803590602001908080601f01602080910402602001604051908101604052809392919081815260200183838082843782019150505050505091929192905050506111e6565b005b34801561045657600080fd5b5061045f6116c1565b6040518082815260200191505060405180910390f35b34801561048157600080fd5b5061048a6117c3565b6040518082815260200191505060405180910390f35b3480156104ac57600080fd5b506104eb600480360381019080803573ffffffffffffffffffffffffffffffffffffffff169060200190929190803590602001909291905050506117d0565b604051808673ffffffffffffffffffffffffffffffffffffffff1673ffffffffffffffffffffffffffffffffffffffff168152602001806020018060200180602001858152602001848103845288818151815260200191508051906020019080838360005b8381101561056b578082015181840152602081019050610550565b50505050905090810190601f1680156105985780820380516001836020036101000a031916815260200191505b50848103835287818151815260200191508051906020019080838360005b838110156105d15780820151818401526020810190506105b6565b50505050905090810190601f1680156105fe5780820380516001836020036101000a031916815260200191505b50848103825286818151815260200191508051906020019080838360005b8381101561063757808201518184015260208101905061061c565b50505050905090810190601f1680156106645780820380516001836020036101000a031916815260200191505b509850505050505050505060405180910390f35b34801561068457600080fd5b506106a360048036038101908080359060200190929190505050611bdc565b005b3480156106b157600080fd5b506106ba611f77565b6040518080602001828103825283818151815260200191508051906020019080838360005b838110156106fa5780820151818401526020810190506106df565b50505050905090810190601f1680156107275780820380516001836020036101000a031916815260200191505b509250505060405180910390f35b34801561074157600080fd5b50610776600480360381019080803573ffffffffffffffffffffffffffffffffffffffff1690602001909291905050506120bb565b005b34801561078457600080fd5b506107a3600480360381019080803590602001909291905050506123ff565b005b3480156107b157600080fd5b5061080c600480360381019080803590602001908201803590602001908080601f0160208091040260200160405190810160405280939291908181526020018383808284378201915050505050509192919290505050612750565b005b34801561081a57600080fd5b5061083960048036038101908080359060200190929190505050612930565b604051808273ffffffffffffffffffffffffffffffffffffffff1673ffffffffffffffffffffffffffffffffffffffff16815260200191505060405180910390f35b34801561088757600080fd5b50610890612a87565b6040518082815260200191505060405180910390f35b600080600260003373ffffffffffffffffffffffffffffffffffffffff1673ffffffffffffffffffffffffffffffffffffffff168152602001908152602001600020541415801561093757506000600260008573ffffffffffffffffffffffffffffffffffffffff1673ffffffffffffffffffffffffffffffffffffffff1681526020019081526020016000205414155b151561094257600080fd5b600160036000600260008773ffffffffffffffffffffffffffffffffffffffff1673ffffffffffffffffffffffffffffffffffffffff1681526020019081526020016000205481526020019081526020016000206008016000848152602001908152602001600020541415610a9f5760036000600260008673ffffffffffffffffffffffffffffffffffffffff1673ffffffffffffffffffffffffffffffffffffffff168152602001908152602001600020548152602001908152602001600020600a01600083815260200190815260200160002060040160008154809291906001019190505590507f2ac6830287aefe22827b2f1a67de92c8ded06ae50d97849aec05860867d10c87838383604051808473ffffffffffffffffffffffffffffffffffffffff1673ffffffffffffffffffffffffffffffffffffffff168152602001838152602001828152602001935050505060405180910390a15b505050565b6000600260003373ffffffffffffffffffffffffffffffffffffffff1673ffffffffffffffffffffffffffffffffffffffff16815260200190815260200160002054141515610af257600080fd5b600054600260003373ffffffffffffffffffffffffffffffffffffffff1673ffffffffffffffffffffffffffffffffffffffff16815260200190815260200160002081905550610100604051908101604052803373ffffffffffffffffffffffffffffffffffffffff168152602001838152602001828152602001600081526020016000815260200160008152602001600081526020016000815250600360008054815260200190815260200160002060008201518160000160006101000a81548173ffffffffffffffffffffffffffffffffffffffff021916908373ffffffffffffffffffffffffffffffffffffffff1602179055506020820151816001019080519060200190610c05929190612b32565b506040820151816002019080519060200190610c22929190612b32565b50606082015181600301556080820151816004015560a0820151816005015560c0820151816006015560e0820151816007015590505081600160003373ffffffffffffffffffffffffffffffffffffffff1673ffffffffffffffffffffffffffffffffffffffff1681526020019081526020016000209080519060200190610cab929190612bb2565b5060008081548092919060010191905055505050565b600080600260003373ffffffffffffffffffffffffffffffffffffffff1673ffffffffffffffffffffffffffffffffffffffff1681526020019081526020016000205414151515610d1157600080fd5b60036000600260003373ffffffffffffffffffffffffffffffffffffffff1673ffffffffffffffffffffffffffffffffffffffff1681526020019081526020016000205481526020019081526020016000206005015460036000600260003373ffffffffffffffffffffffffffffffffffffffff1673ffffffffffffffffffffffffffffffffffffffff1681526020019081526020016000205481526020019081526020016000206003015403905090565b600080600260008473ffffffffffffffffffffffffffffffffffffffff1673ffffffffffffffffffffffffffffffffffffffff1681526020019081526020016000205414151515610e1357600080fd5b60036000600260008573ffffffffffffffffffffffffffffffffffffffff1673ffffffffffffffffffffffffffffffffffffffff1681526020019081526020016000205481526020019081526020016000206005015460036000600260008673ffffffffffffffffffffffffffffffffffffffff1673ffffffffffffffffffffffffffffffffffffffff16815260200190815260200160002054815260200190815260200160002060030154039050919050565b600080600260003373ffffffffffffffffffffffffffffffffffffffff1673ffffffffffffffffffffffffffffffffffffffff1681526020019081526020016000205414151515610f1757600080fd5b60036000600260003373ffffffffffffffffffffffffffffffffffffffff1673ffffffffffffffffffffffffffffffffffffffff16815260200190815260200160002054815260200190815260200160002060030154905090565b60606000600260003373ffffffffffffffffffffffffffffffffffffffff1673ffffffffffffffffffffffffffffffffffffffff1681526020019081526020016000205414151515610fc357600080fd5b600160003373ffffffffffffffffffffffffffffffffffffffff1673ffffffffffffffffffffffffffffffffffffffff1681526020019081526020016000208054600181600116156101000203166002900480601f0160208091040260200160405190810160405280929190818152602001828054600181600116156101000203166002900480156110965780601f1061106b57610100808354040283529160200191611096565b820191906000526020600020905b81548152906001019060200180831161107957829003601f168201915b5050505050905090565b6000803390506000600260008373ffffffffffffffffffffffffffffffffffffffff1673ffffffffffffffffffffffffffffffffffffffff16815260200190815260200160002054141515156110f557600080fd5b60036000600260008473ffffffffffffffffffffffffffffffffffffffff1673ffffffffffffffffffffffffffffffffffffffff1681526020019081526020016000205481526020019081526020016000206007015491505090565b600080600260003373ffffffffffffffffffffffffffffffffffffffff1673ffffffffffffffffffffffffffffffffffffffff16815260200190815260200160002054141515156111a157600080fd5b600260003373ffffffffffffffffffffffffffffffffffffffff1673ffffffffffffffffffffffffffffffffffffffff16815260200190815260200160002054905090565b6000803391506000600260008473ffffffffffffffffffffffffffffffffffffffff1673ffffffffffffffffffffffffffffffffffffffff168152602001908152602001600020541415151561123b57600080fd5b60036000600260008573ffffffffffffffffffffffffffffffffffffffff1673ffffffffffffffffffffffffffffffffffffffff16815260200190815260200160002054815260200190815260200160002060030154905060a0604051908101604052808373ffffffffffffffffffffffffffffffffffffffff16815260200160036000600260008773ffffffffffffffffffffffffffffffffffffffff1673ffffffffffffffffffffffffffffffffffffffff1681526020019081526020016000205481526020019081526020016000206001018054600181600116156101000203166002900480601f0160208091040260200160405190810160405280929190818152602001828054600181600116156101000203166002900480156113a45780601f10611379576101008083540402835291602001916113a4565b820191906000526020600020905b81548152906001019060200180831161138757829003601f168201915b50505050508152602001858152602001848152602001600081525060036000600260008673ffffffffffffffffffffffffffffffffffffffff1673ffffffffffffffffffffffffffffffffffffffff168152602001908152602001600020548152602001908152602001600020600a01600083815260200190815260200160002060008201518160000160006101000a81548173ffffffffffffffffffffffffffffffffffffffff021916908373ffffffffffffffffffffffffffffffffffffffff1602179055506020820151816001019080519060200190611488929190612b32565b5060408201518160020190805190602001906114a5929190612b32565b5060608201518160030190805190602001906114c2929190612b32565b5060808201518160040155905050600160036000600260008673ffffffffffffffffffffffffffffffffffffffff1673ffffffffffffffffffffffffffffffffffffffff16815260200190815260200160002054815260200190815260200160002060080160008381526020019081526020016000208190555060036000600260008573ffffffffffffffffffffffffffffffffffffffff1673ffffffffffffffffffffffffffffffffffffffff168152602001908152602001600020548152602001908152602001600020600301600081548092919060010191905055507ff5f5fe140471567d4db5e1679adabb53fb932067fd78b2872d7859cb488a8d0a8185856000604051808581526020018060200180602001848152602001838103835286818151815260200191508051906020019080838360005b838110156116175780820151818401526020810190506115fc565b50505050905090810190601f1680156116445780820380516001836020036101000a031916815260200191505b50838103825285818151815260200191508051906020019080838360005b8381101561167d578082015181840152602081019050611662565b50505050905090810190601f1680156116aa5780820380516001836020036101000a031916815260200191505b50965050505050505060405180910390a150505050565b600080600260003373ffffffffffffffffffffffffffffffffffffffff1673ffffffffffffffffffffffffffffffffffffffff168152602001908152602001600020541415151561171157600080fd5b60036000600260003373ffffffffffffffffffffffffffffffffffffffff1673ffffffffffffffffffffffffffffffffffffffff1681526020019081526020016000205481526020019081526020016000206006015460036000600260003373ffffffffffffffffffffffffffffffffffffffff1673ffffffffffffffffffffffffffffffffffffffff1681526020019081526020016000205481526020019081526020016000206004015403905090565b6000600160005403905090565b6000606080606060006117e1612c32565b6000600260008a73ffffffffffffffffffffffffffffffffffffffff1673ffffffffffffffffffffffffffffffffffffffff168152602001908152602001600020541415151561183057600080fd5b600160036000600260008c73ffffffffffffffffffffffffffffffffffffffff1673ffffffffffffffffffffffffffffffffffffffff1681526020019081526020016000205481526020019081526020016000206008016000898152602001908152602001600020541415611b8a5760036000600260008b73ffffffffffffffffffffffffffffffffffffffff1673ffffffffffffffffffffffffffffffffffffffff168152602001908152602001600020548152602001908152602001600020600a01600088815260200190815260200160002060a060405190810160405290816000820160009054906101000a900473ffffffffffffffffffffffffffffffffffffffff1673ffffffffffffffffffffffffffffffffffffffff1673ffffffffffffffffffffffffffffffffffffffff168152602001600182018054600181600116156101000203166002900480601f016020809104026020016040519081016040528092919081815260200182805460018160011615610100020316600290048015611a005780601f106119d557610100808354040283529160200191611a00565b820191906000526020600020905b8154815290600101906020018083116119e357829003601f168201915b50505050508152602001600282018054600181600116156101000203166002900480601f016020809104026020016040519081016040528092919081815260200182805460018160011615610100020316600290048015611aa25780601f10611a7757610100808354040283529160200191611aa2565b820191906000526020600020905b815481529060010190602001808311611a8557829003601f168201915b50505050508152602001600382018054600181600116156101000203166002900480601f016020809104026020016040519081016040528092919081815260200182805460018160011615610100020316600290048015611b445780601f10611b1957610100808354040283529160200191611b44565b820191906000526020600020905b815481529060010190602001808311611b2757829003601f168201915b5050505050815260200160048201548152505090508060000151816020015182604001518360600151846080015183935082925081915095509550955095509550611bd1565b600080602060405190810160405280600081525090602060405190810160405280600081525090602060405190810160405280600081525090809050955095509550955095505b509295509295909350565b6000803391506000600260008473ffffffffffffffffffffffffffffffffffffffff1673ffffffffffffffffffffffffffffffffffffffff1681526020019081526020016000205414151515611c3157600080fd5b600160036000600260008673ffffffffffffffffffffffffffffffffffffffff1673ffffffffffffffffffffffffffffffffffffffff1681526020019081526020016000205481526020019081526020016000206009016000858152602001908152602001600020541415611f725760036000600260008573ffffffffffffffffffffffffffffffffffffffff1673ffffffffffffffffffffffffffffffffffffffff168152602001908152602001600020548152602001908152602001600020600b01600084815260200190815260200160002060009054906101000a900473ffffffffffffffffffffffffffffffffffffffff16905060036000600260008473ffffffffffffffffffffffffffffffffffffffff1673ffffffffffffffffffffffffffffffffffffffff1681526020019081526020016000205481526020019081526020016000206007016000815480929190600190039190505550600060036000600260008673ffffffffffffffffffffffffffffffffffffffff1673ffffffffffffffffffffffffffffffffffffffff168152602001908152602001600020548152602001908152602001600020600b01600085815260200190815260200160002060006101000a81548173ffffffffffffffffffffffffffffffffffffffff021916908373ffffffffffffffffffffffffffffffffffffffff160217905550600060036000600260008673ffffffffffffffffffffffffffffffffffffffff1673ffffffffffffffffffffffffffffffffffffffff16815260200190815260200160002054815260200190815260200160002060090160008581526020019081526020016000208190555060036000600260008573ffffffffffffffffffffffffffffffffffffffff1673ffffffffffffffffffffffffffffffffffffffff168152602001908152602001600020548152602001908152602001600020600601600081548092919060010191905055507feaa4d9abe690328be4f489f765ca2208a1acf2d00cda5c2ddce725866cb0382b8184604051808373ffffffffffffffffffffffffffffffffffffffff1673ffffffffffffffffffffffffffffffffffffffff1681526020018281526020019250505060405180910390a15b505050565b60606000600260003373ffffffffffffffffffffffffffffffffffffffff1673ffffffffffffffffffffffffffffffffffffffff1681526020019081526020016000205414151515611fc857600080fd5b60036000600260003373ffffffffffffffffffffffffffffffffffffffff1673ffffffffffffffffffffffffffffffffffffffff1681526020019081526020016000205481526020019081526020016000206002018054600181600116156101000203166002900480601f0160208091040260200160405190810160405280929190818152602001828054600181600116156101000203166002900480156120b15780601f10612086576101008083540402835291602001916120b1565b820191906000526020600020905b81548152906001019060200180831161209457829003601f168201915b5050505050905090565b6000803391506000600260008473ffffffffffffffffffffffffffffffffffffffff1673ffffffffffffffffffffffffffffffffffffffff168152602001908152602001600020541415801561215157506000600260008573ffffffffffffffffffffffffffffffffffffffff1673ffffffffffffffffffffffffffffffffffffffff1681526020019081526020016000205414155b151561215c57600080fd5b60036000600260008573ffffffffffffffffffffffffffffffffffffffff1673ffffffffffffffffffffffffffffffffffffffff1681526020019081526020016000205481526020019081526020016000206004015490508260036000600260008673ffffffffffffffffffffffffffffffffffffffff1673ffffffffffffffffffffffffffffffffffffffff168152602001908152602001600020548152602001908152602001600020600b01600083815260200190815260200160002060006101000a81548173ffffffffffffffffffffffffffffffffffffffff021916908373ffffffffffffffffffffffffffffffffffffffff160217905550600160036000600260008673ffffffffffffffffffffffffffffffffffffffff1673ffffffffffffffffffffffffffffffffffffffff16815260200190815260200160002054815260200190815260200160002060090160008381526020019081526020016000208190555060036000600260008573ffffffffffffffffffffffffffffffffffffffff1673ffffffffffffffffffffffffffffffffffffffff1681526020019081526020016000205481526020019081526020016000206004016000815480929190600101919050555060036000600260008673ffffffffffffffffffffffffffffffffffffffff1673ffffffffffffffffffffffffffffffffffffffff168152602001908152602001600020548152602001908152602001600020600701600081548092919060010191905055507f4b81b0322b2e2390f6884de55405b6c7bec63e1b8385cf0fadd3391912cbc44f8382604051808373ffffffffffffffffffffffffffffffffffffffff1673ffffffffffffffffffffffffffffffffffffffff1681526020018281526020019250505060405180910390a1505050565b60003390506000600260008373ffffffffffffffffffffffffffffffffffffffff1673ffffffffffffffffffffffffffffffffffffffff168152602001908152602001600020541415151561245357600080fd5b600160036000600260008573ffffffffffffffffffffffffffffffffffffffff1673ffffffffffffffffffffffffffffffffffffffff168152602001908152602001600020548152602001908152602001600020600801600084815260200190815260200160002054141561274c5760a060405190810160405280600073ffffffffffffffffffffffffffffffffffffffff168152602001602060405190810160405280600081525081526020016020604051908101604052806000815250815260200160206040519081016040528060008152508152602001600081525060036000600260008573ffffffffffffffffffffffffffffffffffffffff1673ffffffffffffffffffffffffffffffffffffffff168152602001908152602001600020548152602001908152602001600020600a01600084815260200190815260200160002060008201518160000160006101000a81548173ffffffffffffffffffffffffffffffffffffffff021916908373ffffffffffffffffffffffffffffffffffffffff16021790555060208201518160010190805190602001906125fb929190612b32565b506040820151816002019080519060200190612618929190612b32565b506060820151816003019080519060200190612635929190612b32565b5060808201518160040155905050600060036000600260008573ffffffffffffffffffffffffffffffffffffffff1673ffffffffffffffffffffffffffffffffffffffff16815260200190815260200160002054815260200190815260200160002060080160008481526020019081526020016000208190555060036000600260008473ffffffffffffffffffffffffffffffffffffffff1673ffffffffffffffffffffffffffffffffffffffff168152602001908152602001600020548152602001908152602001600020600501600081548092919060010191905055507f777fcc1594e48bce873e7f2b304560b00fdd7ea73d2d36ad9280dbe64d1040e7826040518082815260200191505060405180910390a15b5050565b6000600260003373ffffffffffffffffffffffffffffffffffffffff1673ffffffffffffffffffffffffffffffffffffffff168152602001908152602001600020541415151561279f57600080fd5b80600160003373ffffffffffffffffffffffffffffffffffffffff1673ffffffffffffffffffffffffffffffffffffffff16815260200190815260200160002090805190602001906127f2929190612bb2565b508060036000600260003373ffffffffffffffffffffffffffffffffffffffff1673ffffffffffffffffffffffffffffffffffffffff168152602001908152602001600020548152602001908152602001600020600101908051906020019061285c929190612bb2565b507f47d93b1686407e406c60170527364d6001bb41c5597f9e9174b65cc6c24778c53382604051808373ffffffffffffffffffffffffffffffffffffffff1673ffffffffffffffffffffffffffffffffffffffff16815260200180602001828103825283818151815260200191508051906020019080838360005b838110156128f25780820151818401526020810190506128d7565b50505050905090810190601f16801561291f5780820380516001836020036101000a031916815260200191505b50935050505060405180910390a150565b600080600260003373ffffffffffffffffffffffffffffffffffffffff1673ffffffffffffffffffffffffffffffffffffffff168152602001908152602001600020541415151561298057600080fd5b600160036000600260003373ffffffffffffffffffffffffffffffffffffffff1673ffffffffffffffffffffffffffffffffffffffff1681526020019081526020016000205481526020019081526020016000206009016000848152602001908152602001600020541415612a7d5760036000600260003373ffffffffffffffffffffffffffffffffffffffff1673ffffffffffffffffffffffffffffffffffffffff168152602001908152602001600020548152602001908152602001600020600b01600083815260200190815260200160002060009054906101000a900473ffffffffffffffffffffffffffffffffffffffff169050612a82565b600090505b919050565b600080600260003373ffffffffffffffffffffffffffffffffffffffff1673ffffffffffffffffffffffffffffffffffffffff1681526020019081526020016000205414151515612ad757600080fd5b60036000600260003373ffffffffffffffffffffffffffffffffffffffff1673ffffffffffffffffffffffffffffffffffffffff16815260200190815260200160002054815260200190815260200160002060040154905090565b828054600181600116156101000203166002900490600052602060002090601f016020900481019282601f10612b7357805160ff1916838001178555612ba1565b82800160010185558215612ba1579182015b82811115612ba0578251825591602001919060010190612b85565b5b509050612bae9190612c78565b5090565b828054600181600116156101000203166002900490600052602060002090601f016020900481019282601f10612bf357805160ff1916838001178555612c21565b82800160010185558215612c21579182015b82811115612c20578251825591602001919060010190612c05565b5b509050612c2e9190612c78565b5090565b60a060405190810160405280600073ffffffffffffffffffffffffffffffffffffffff168152602001606081526020016060815260200160608152602001600081525090565b612c9a91905b80821115612c96576000816000905550600101612c7e565b5090565b905600a165627a7a72305820e0ef0a1028d420aa06574d8f097d98d44f5c636b9bb19bfec0c9e176ebfae2520029",
  "source": "pragma solidity ^0.4.17;\n\ncontract Dweibo {\n  \n\n  \n  \n  struct Dongtai {\n    address owner;\n    string username;\n    string content;\n    string time;\n    uint niceNum;\n  }\n\n  struct Account {\n    address owner;\n    string username;\n    string password;\n    uint dongtaiNum;\n    uint friendNum;\n    uint kongDongtai;\n    uint kongFriend;\n    uint followedNum;\n\n    \n    mapping (uint => uint) dongtaiValid;\n    mapping (uint => uint) friendValid;\n    mapping (uint => Dongtai) dongtais;\n    mapping (uint => address) friends;\n  }\n\n  event cerateaccount(address owner,string username);\n  event adddongtai(uint index,string content,string time,uint niceNum);\n  event addfriend(address friend,uint index);\n  event deletefriend(address friend,uint index);\n  event deletedongtai(uint index);\n  event setnice(address owner,uint index,uint niceNum);\n\n  uint internal accountNum = 1;\n  \n  \n  mapping (address => string) internal theName;\n  mapping (address => uint) internal accountID;\n  mapping (uint => Account) internal accs; \n\n  \n  function createAccount(string name,string password) public {\n    require(accountID[msg.sender] == 0);\n    \n    accountID[msg.sender] = accountNum;\n    accs[accountNum] = Account(msg.sender,name,password,0,0,0,0,0);\n    theName[msg.sender] = name;\n    accountNum++;\n  }\n\n  function getPassword() public view returns(string) {\n    require(accountID[msg.sender] != 0);\n    return accs[accountID[msg.sender]].password;\n  }\n\n  function setUsername(string name) public {\n    require(accountID[msg.sender] != 0);\n    theName[msg.sender] = name;\n    accs[accountID[msg.sender]].username = name;\n    emit cerateaccount(msg.sender,name);\n  }\n\n\n  function getAccountNum() public view returns(uint) {\n    return accountNum - 1;\n  }\n\n  function getAccountID() public view returns(uint) {\n    require(accountID[msg.sender] != 0);\n    return accountID[msg.sender];\n  }\n\n  /*function getAccountAddress(uint index) public view returns(address) {\n  \trequire(index<accountNum);\n    return accs[index].owner;\n  }*/\n\n  function getUsername() public view returns(string) {\n  \trequire(accountID[msg.sender] != 0);\n  \treturn theName[msg.sender];\n  }\n\n  function getDongtaiNum() public view returns(uint) {\n  \trequire(accountID[msg.sender]!=0);\n  \treturn accs[accountID[msg.sender]].dongtaiNum-accs[accountID[msg.sender]].kongDongtai;\n  }\n\n  function getAllDongtaiNum() public view returns(uint) {\n    require(accountID[msg.sender]!=0);\n    return accs[accountID[msg.sender]].dongtaiNum;\n  }\n\n  function getDongtaiNumByAddress(address owner) public view returns(uint) {\n  \trequire(accountID[owner]!=0);\n  \treturn accs[accountID[owner]].dongtaiNum-accs[accountID[owner]].kongDongtai;\n  }\n\n  function getFriendNum() public view returns(uint) {\n  \trequire(accountID[msg.sender]!=0);\n  \treturn accs[accountID[msg.sender]].friendNum-accs[accountID[msg.sender]].kongFriend;\n  }\n\n  function getAllFriendNum() public view returns(uint) {\n    require(accountID[msg.sender]!=0);\n    return accs[accountID[msg.sender]].friendNum;\n  }\n\n  function getDongtai(address owner,uint index) public view returns(address,string,string,string,uint) {\n  \trequire(accountID[owner]!=0);\n  \tif(accs[accountID[owner]].dongtaiValid[index]==1){\n     Dongtai memory temp = accs[accountID[owner]].dongtais[index];\n     return(temp.owner,temp.username,temp.content,temp.time,temp.niceNum);\n   }\n  \telse return (address(0),\"\",\"\",\"\",0);\n  }\n\n  function getFriendAddress(uint index) public view returns(address) {\n  \trequire(accountID[msg.sender]!=0);\n  \tif(accs[accountID[msg.sender]].friendValid[index]==1) return accs[accountID[msg.sender]].friends[index];\n  \telse return address(0);\n  }\n\n  function addDongtai(string content,string time) public {\n  \taddress owner = msg.sender;\n  \trequire(accountID[owner]!=0);\n    uint dongtaiNum = accs[accountID[owner]].dongtaiNum;\n  \taccs[accountID[owner]].dongtais[dongtaiNum] = Dongtai(owner,accs[accountID[owner]].username,content,time,0);\n  \taccs[accountID[owner]].dongtaiValid[dongtaiNum] = 1;\n  \taccs[accountID[owner]].dongtaiNum++;\n  \temit adddongtai(dongtaiNum,content,time,0);\n  }\n\n  function addFriend(address friend) public {\n  \taddress owner = msg.sender;\n  \trequire(accountID[owner]!=0 && accountID[friend]!=0);\n    uint friendNum = accs[accountID[owner]].friendNum;\n  \taccs[accountID[owner]].friends[friendNum] = friend;\n  \taccs[accountID[owner]].friendValid[friendNum] = 1;\n  \taccs[accountID[owner]].friendNum++;\n  \taccs[accountID[friend]].followedNum++;\n  \temit addfriend(friend,friendNum);\n  }\n\n  function deleteDongtai(uint index) public {\n  \taddress owner = msg.sender;\n  \trequire(accountID[owner]!=0);\n  \tif(accs[accountID[owner]].dongtaiValid[index]==1) {\n  \t\taccs[accountID[owner]].dongtais[index]=Dongtai(address(0),\"\",\"\",\"\",0);\n  \t\taccs[accountID[owner]].dongtaiValid[index]=0;\n  \t\taccs[accountID[owner]].kongDongtai++;\n  \t\temit deletedongtai(index);\n  \t}\n  }\n\n  function deleteFriend(uint index) public {\n  \taddress owner = msg.sender;\n  \trequire(accountID[owner]!=0);\n  \tif(accs[accountID[owner]].friendValid[index]==1) {\n  \t\taddress friend = accs[accountID[owner]].friends[index];\n  \t\taccs[accountID[friend]].followedNum--;\n  \t\taccs[accountID[owner]].friends[index]=address(0);\n  \t\taccs[accountID[owner]].friendValid[index]=0;\n  \t\taccs[accountID[owner]].kongFriend++;\n  \t\temit deletefriend(friend,index);\n  \t}\n  }\n  \n  function getFollowedNum() public view returns(uint) {\n  \taddress owner = msg.sender;\n  \trequire(accountID[owner]!=0);\n  \treturn accs[accountID[owner]].followedNum;\n  }\n\n  function setNice(address owner,uint index) public {\n  \trequire(accountID[msg.sender]!=0 && accountID[owner]!=0);\n  \tif(accs[accountID[owner]].dongtaiValid[index]==1){\n  \t\tuint re=accs[accountID[owner]].dongtais[index].niceNum++;\n  \t\temit setnice(owner,index,re);\n  \t}\n  }\n  \n}",
  "sourcePath": "C:\\Users\\\\Desktop\\Dweibo\\contracts\\Dweibo.sol",
  "compiler": {
    "name": "solc",
    "version": "0.4.25+commit.59dbf8f1.Emscripten.clang"
  },
  "schemaVersion": "2.0.2",
  "updatedAt": "2018-12-29T01:05:26.677Z"
}